{
  "contractName": "TokenSale",
  "abi": [
    {
      "inputs": [],
      "name": "tokenContract",
      "outputs": [
        {
          "internalType": "contract ShreyanshToken",
          "name": "",
          "type": "address"
        }
      ],
      "stateMutability": "view",
      "type": "function"
    },
    {
      "inputs": [],
      "name": "tokenPrice",
      "outputs": [
        {
          "internalType": "uint256",
          "name": "",
          "type": "uint256"
        }
      ],
      "stateMutability": "view",
      "type": "function"
    },
    {
      "inputs": [],
      "name": "tokensSold",
      "outputs": [
        {
          "internalType": "uint256",
          "name": "",
          "type": "uint256"
        }
      ],
      "stateMutability": "view",
      "type": "function"
    }
  ],
  "bytecode": "0x608060405234801561001057600080fd5b506101d6806100206000396000f3fe608060405234801561001057600080fd5b50600436106100415760003560e01c8063518ab2a81461004657806355a373d6146100645780637ff9b59614610082575b600080fd5b61004e6100a0565b60405161005b91906100eb565b60405180910390f35b61006c6100a6565b6040516100799190610185565b60405180910390f35b61008a6100cc565b60405161009791906100eb565b60405180910390f35b60035481565b600160009054906101000a900473ffffffffffffffffffffffffffffffffffffffff1681565b60025481565b6000819050919050565b6100e5816100d2565b82525050565b600060208201905061010060008301846100dc565b92915050565b600073ffffffffffffffffffffffffffffffffffffffff82169050919050565b6000819050919050565b600061014b61014661014184610106565b610126565b610106565b9050919050565b600061015d82610130565b9050919050565b600061016f82610152565b9050919050565b61017f81610164565b82525050565b600060208201905061019a6000830184610176565b9291505056fea26469706673582212202757ce91e53dec14aad23c5bdd08b110139104ed339edad543028bdb7ae4cf1464736f6c634300080f0033",
  "immutableReferences": {},
  "source": "// SPDX-License-Identifier: MIT\r\npragma solidity >=0.4.22 <0.9.0;\r\n\r\nimport \"./ShreyanshToken.sol\";\r\n\r\ncontract TokenSale {\r\n    address admin;\r\n    ShreyanshToken public tokenContract;\r\n    uint256 public tokenPrice;\r\n    uint256 public tokensSold;\r\n\r\n    // event Sell(address _buyer, uint256 _amount);\r\n\r\n    // constructor(ShreyanshToken _tokenContract, uint256 _tokenPrice) public {\r\n    //     admin = msg.sender;\r\n    //     tokenContract = _tokenContract;\r\n    //     tokenPrice = _tokenPrice;\r\n    // }\r\n\r\n    // function multiply(uint256 x, uint256 y) internal pure returns (uint256 z) {\r\n    //     require(y == 0 || (z = x * y) / y == x);\r\n    // }\r\n\r\n    // function buyTokens(uint256 _numberOfTokens) public payable {\r\n    //     require(msg.value == multiply(_numberOfTokens, tokenPrice));\r\n    //     require(tokenContract.balanceOf(this) >= _numberOfTokens);\r\n    //     require(tokenContract.transfer(msg.sender, _numberOfTokens));\r\n\r\n    //     tokensSold += _numberOfTokens;\r\n\r\n    //     Sell(msg.sender, _numberOfTokens);\r\n    // }\r\n\r\n    // function endSale() public {\r\n    //     require(msg.sender == admin);\r\n    //     require(tokenContract.transfer(admin, tokenContract.balanceOf(this)));\r\n\r\n    //     selfdestruct(admin);\r\n    // }\r\n}\r\n",
  "sourcePath": "D:\\Study Material\\Fourth Year\\7 Sem\\Block Chain\\ERC 20 Token\\Shreyansh Coin\\contracts\\ShreyanshTokenSale.sol",
  "compiler": {
    "name": "solc",
    "version": "0.8.15+commit.e14f2714.Emscripten.clang"
  },
  "schemaVersion": "3.4.8",
  "updatedAt": "2022-07-30T13:27:58.490Z",
  "devdoc": {
    "kind": "dev",
    "methods": {},
    "version": 1
  },
  "userdoc": {
    "kind": "user",
    "methods": {},
    "version": 1
  }
}